{
  "_format": "hh-sol-artifact-1",
  "contractName": "MockPriceFeed",
  "sourceName": "contracts/MockPriceFeed.sol",
  "abi": [
    {
      "inputs": [],
      "name": "latestAnswer",
      "outputs": [
        {
          "internalType": "int256",
          "name": "",
          "type": "int256"
        }
      ],
      "stateMutability": "view",
      "type": "function"
    },
    {
      "inputs": [],
      "name": "latestRoundData",
      "outputs": [
        {
          "internalType": "uint80",
          "name": "",
          "type": "uint80"
        },
        {
          "internalType": "int256",
          "name": "answer",
          "type": "int256"
        },
        {
          "internalType": "uint256",
          "name": "",
          "type": "uint256"
        },
        {
          "internalType": "uint256",
          "name": "",
          "type": "uint256"
        },
        {
          "internalType": "uint80",
          "name": "",
          "type": "uint80"
        }
      ],
      "stateMutability": "view",
      "type": "function"
    },
    {
      "inputs": [
        {
          "internalType": "int256",
          "name": "_price",
          "type": "int256"
        }
      ],
      "name": "setLatestAnswer",
      "outputs": [],
      "stateMutability": "nonpayable",
      "type": "function"
    }
  ],
  "bytecode": "0x6080604052642e90edd000600055348015601857600080fd5b5061022d806100286000396000f3fe608060405234801561001057600080fd5b50600436106100415760003560e01c806304ea97b01461004657806350d25bcd14610062578063feaf968c14610080575b600080fd5b610060600480360381019061005b919061010f565b6100a2565b005b61006a6100ac565b604051610077919061014b565b60405180910390f35b6100886100b2565b6040516100999594939291906101a4565b60405180910390f35b8060008190555050565b60005481565b6000806000806000806000546000806000945094509450945094509091929394565b600080fd5b6000819050919050565b6100ec816100d9565b81146100f757600080fd5b50565b600081359050610109816100e3565b92915050565b600060208284031215610125576101246100d4565b5b6000610133848285016100fa565b91505092915050565b610145816100d9565b82525050565b6000602082019050610160600083018461013c565b92915050565b600069ffffffffffffffffffff82169050919050565b61018581610166565b82525050565b6000819050919050565b61019e8161018b565b82525050565b600060a0820190506101b9600083018861017c565b6101c6602083018761013c565b6101d36040830186610195565b6101e06060830185610195565b6101ed608083018461017c565b969550505050505056fea264697066735822122078ec502145d55ad8ab71e2f0d78d238374d7c45a0cbf33faf3e6240c2908cf1a64736f6c634300081c0033",
  "linkReferences": {},
  "deployedLinkReferences": {}
}