{
  "_format": "hh-sol-artifact-1",
  "contractName": "MockAggregatorV3Interface",
  "sourceName": "contracts/MockAggregatorV3Interface.sol",
  "abi": [
    {
      "inputs": [],
      "name": "latestRoundData",
      "outputs": [
        {
          "internalType": "uint80",
          "name": "",
          "type": "uint80"
        },
        {
          "internalType": "int256",
          "name": "",
          "type": "int256"
        },
        {
          "internalType": "uint256",
          "name": "",
          "type": "uint256"
        },
        {
          "internalType": "uint256",
          "name": "",
          "type": "uint256"
        },
        {
          "internalType": "uint80",
          "name": "",
          "type": "uint80"
        }
      ],
      "stateMutability": "view",
      "type": "function"
    },
    {
      "inputs": [],
      "name": "price",
      "outputs": [
        {
          "internalType": "int256",
          "name": "",
          "type": "int256"
        }
      ],
      "stateMutability": "view",
      "type": "function"
    },
    {
      "inputs": [
        {
          "internalType": "int256",
          "name": "_price",
          "type": "int256"
        }
      ],
      "name": "setPrice",
      "outputs": [],
      "stateMutability": "nonpayable",
      "type": "function"
    }
  ],
  "bytecode": "0x60806040526445d964b800600055348015601857600080fd5b5061022d806100286000396000f3fe608060405234801561001057600080fd5b50600436106100415760003560e01c8063a035b1fe14610046578063f7a3080614610064578063feaf968c14610080575b600080fd5b61004e6100a2565b60405161005b91906100ed565b60405180910390f35b61007e60048036038101906100799190610139565b6100a8565b005b6100886100b2565b6040516100999594939291906101a4565b60405180910390f35b60005481565b8060008190555050565b6000806000806000806000546000806000945094509450945094509091929394565b6000819050919050565b6100e7816100d4565b82525050565b600060208201905061010260008301846100de565b92915050565b600080fd5b610116816100d4565b811461012157600080fd5b50565b6000813590506101338161010d565b92915050565b60006020828403121561014f5761014e610108565b5b600061015d84828501610124565b91505092915050565b600069ffffffffffffffffffff82169050919050565b61018581610166565b82525050565b6000819050919050565b61019e8161018b565b82525050565b600060a0820190506101b9600083018861017c565b6101c660208301876100de565b6101d36040830186610195565b6101e06060830185610195565b6101ed608083018461017c565b969550505050505056fea26469706673582212208221cd1d2d1d215ab2c8fa85f91ff12ca32d3ccac4687f1524b4af53d1890ff564736f6c634300081c0033",
  "linkReferences": {},
  "deployedLinkReferences": {}
}