{
  "_format": "hh-sol-artifact-1",
  "contractName": "PredictionMarket",
  "sourceName": "contracts/PredictionMarket.sol",
  "abi": [
    {
      "inputs": [
        {
          "internalType": "address",
          "name": "_ftsoAddress",
          "type": "address"
        }
      ],
      "stateMutability": "nonpayable",
      "type": "constructor"
    },
    {
      "inputs": [
        {
          "internalType": "uint256",
          "name": "marketId",
          "type": "uint256"
        }
      ],
      "name": "betNo",
      "outputs": [],
      "stateMutability": "payable",
      "type": "function"
    },
    {
      "inputs": [
        {
          "internalType": "uint256",
          "name": "marketId",
          "type": "uint256"
        }
      ],
      "name": "betYes",
      "outputs": [],
      "stateMutability": "payable",
      "type": "function"
    },
    {
      "inputs": [
        {
          "internalType": "uint256",
          "name": "marketId",
          "type": "uint256"
        }
      ],
      "name": "claim",
      "outputs": [],
      "stateMutability": "nonpayable",
      "type": "function"
    },
    {
      "inputs": [
        {
          "internalType": "string",
          "name": "_question",
          "type": "string"
        },
        {
          "internalType": "uint256",
          "name": "_durationInSeconds",
          "type": "uint256"
        }
      ],
      "name": "createMarket",
      "outputs": [],
      "stateMutability": "nonpayable",
      "type": "function"
    },
    {
      "inputs": [],
      "name": "ftso",
      "outputs": [
        {
          "internalType": "contract IFTSO",
          "name": "",
          "type": "address"
        }
      ],
      "stateMutability": "view",
      "type": "function"
    },
    {
      "inputs": [],
      "name": "getEthUsd",
      "outputs": [
        {
          "internalType": "uint256",
          "name": "",
          "type": "uint256"
        }
      ],
      "stateMutability": "view",
      "type": "function"
    },
    {
      "inputs": [
        {
          "internalType": "uint256",
          "name": "usdPerGel",
          "type": "uint256"
        }
      ],
      "name": "getGelPerEth",
      "outputs": [
        {
          "internalType": "uint256",
          "name": "",
          "type": "uint256"
        }
      ],
      "stateMutability": "view",
      "type": "function"
    },
    {
      "inputs": [
        {
          "internalType": "uint256",
          "name": "marketId",
          "type": "uint256"
        }
      ],
      "name": "getPools",
      "outputs": [
        {
          "internalType": "uint256",
          "name": "yes",
          "type": "uint256"
        },
        {
          "internalType": "uint256",
          "name": "no",
          "type": "uint256"
        }
      ],
      "stateMutability": "view",
      "type": "function"
    },
    {
      "inputs": [],
      "name": "marketCount",
      "outputs": [
        {
          "internalType": "uint256",
          "name": "",
          "type": "uint256"
        }
      ],
      "stateMutability": "view",
      "type": "function"
    },
    {
      "inputs": [
        {
          "internalType": "uint256",
          "name": "",
          "type": "uint256"
        }
      ],
      "name": "markets",
      "outputs": [
        {
          "internalType": "string",
          "name": "question",
          "type": "string"
        },
        {
          "internalType": "uint256",
          "name": "endTime",
          "type": "uint256"
        },
        {
          "internalType": "uint256",
          "name": "yesPool",
          "type": "uint256"
        },
        {
          "internalType": "uint256",
          "name": "noPool",
          "type": "uint256"
        },
        {
          "internalType": "bool",
          "name": "resolved",
          "type": "bool"
        },
        {
          "internalType": "bool",
          "name": "outcome",
          "type": "bool"
        }
      ],
      "stateMutability": "view",
      "type": "function"
    },
    {
      "inputs": [],
      "name": "owner",
      "outputs": [
        {
          "internalType": "address",
          "name": "",
          "type": "address"
        }
      ],
      "stateMutability": "view",
      "type": "function"
    },
    {
      "inputs": [
        {
          "internalType": "uint256",
          "name": "marketId",
          "type": "uint256"
        },
        {
          "internalType": "bool",
          "name": "outcome",
          "type": "bool"
        }
      ],
      "name": "resolveMarket",
      "outputs": [],
      "stateMutability": "nonpayable",
      "type": "function"
    },
    {
      "stateMutability": "payable",
      "type": "receive"
    }
  ],
  "bytecode": "0x608060405234801561001057600080fd5b506040516118dd3803806118dd8339818101604052810190610032919061011c565b336000806101000a81548173ffffffffffffffffffffffffffffffffffffffff021916908373ffffffffffffffffffffffffffffffffffffffff16021790555080600360006101000a81548173ffffffffffffffffffffffffffffffffffffffff021916908373ffffffffffffffffffffffffffffffffffffffff16021790555050610149565b600080fd5b600073ffffffffffffffffffffffffffffffffffffffff82169050919050565b60006100e9826100be565b9050919050565b6100f9816100de565b811461010457600080fd5b50565b600081519050610116816100f0565b92915050565b600060208284031215610132576101316100b9565b5b600061014084828501610107565b91505092915050565b611785806101586000396000f3fe6080604052600436106100ab5760003560e01c80638da5cb5b116100645780638da5cb5b146101b757806393467525146101e2578063b1283e77146101fe578063bb27e0ce14610240578063dce1fc251461026b578063ec979082146102a8576100b2565b80630da0c022146100b7578063379607f5146100e2578063415a4a251461010b57806357bde4461461012757806362d26ed714610150578063883c84c11461018e576100b2565b366100b257005b600080fd5b3480156100c357600080fd5b506100cc6102d3565b6040516100d99190610c7b565b60405180910390f35b3480156100ee57600080fd5b5061010960048036038101906101049190610cd6565b6102f9565b005b61012560048036038101906101209190610cd6565b6105ce565b005b34801561013357600080fd5b5061014e60048036038101906101499190610d3b565b6106a2565b005b34801561015c57600080fd5b5061017760048036038101906101729190610cd6565b61081e565b604051610185929190610d8a565b60405180910390f35b34801561019a57600080fd5b506101b560048036038101906101b09190610e18565b61084c565b005b3480156101c357600080fd5b506101cc610935565b6040516101d99190610e99565b60405180910390f35b6101fc60048036038101906101f79190610cd6565b610959565b005b34801561020a57600080fd5b5061022560048036038101906102209190610cd6565b610a2d565b60405161023796959493929190610f53565b60405180910390f35b34801561024c57600080fd5b50610255610b0b565b6040516102629190610fbb565b60405180910390f35b34801561027757600080fd5b50610292600480360381019061028d9190610cd6565b610bc6565b60405161029f9190610fbb565b60405180910390f35b3480156102b457600080fd5b506102bd610bf6565b6040516102ca9190610fbb565b60405180910390f35b600360009054906101000a900473ffffffffffffffffffffffffffffffffffffffff1681565b60006002600083815260200190815260200160002090508060060160009054906101000a900460ff16610361576040517f08c379a000000000000000000000000000000000000000000000000000000000815260040161035890611022565b60405180910390fd5b60008160060160019054906101000a900460ff16156104805760008260040160003373ffffffffffffffffffffffffffffffffffffffff1673ffffffffffffffffffffffffffffffffffffffff16815260200190815260200160002054905060008111610403576040517f08c379a00000000000000000000000000000000000000000000000000000000081526004016103fa9061108e565b60405180910390fd5b82600201548360030154846002015461041c91906110dd565b826104279190611111565b6104319190611182565b915060008360040160003373ffffffffffffffffffffffffffffffffffffffff1673ffffffffffffffffffffffffffffffffffffffff1681526020019081526020016000208190555050610582565b60008260050160003373ffffffffffffffffffffffffffffffffffffffff1673ffffffffffffffffffffffffffffffffffffffff16815260200190815260200160002054905060008111610509576040517f08c379a00000000000000000000000000000000000000000000000000000000081526004016105009061108e565b60405180910390fd5b82600301548360030154846002015461052291906110dd565b8261052d9190611111565b6105379190611182565b915060008360050160003373ffffffffffffffffffffffffffffffffffffffff1673ffffffffffffffffffffffffffffffffffffffff16815260200190815260200160002081905550505b3373ffffffffffffffffffffffffffffffffffffffff166108fc829081150290604051600060405180830381858888f193505050501580156105c8573d6000803e3d6000fd5b50505050565b60006002600083815260200190815260200160002090508060010154421061062b576040517f08c379a0000000000000000000000000000000000000000000000000000000008152600401610622906111ff565b60405180910390fd5b3481600301600082825461063f91906110dd565b92505081905550348160050160003373ffffffffffffffffffffffffffffffffffffffff1673ffffffffffffffffffffffffffffffffffffffff168152602001908152602001600020600082825461069791906110dd565b925050819055505050565b60008054906101000a900473ffffffffffffffffffffffffffffffffffffffff1673ffffffffffffffffffffffffffffffffffffffff163373ffffffffffffffffffffffffffffffffffffffff1614610730576040517f08c379a00000000000000000000000000000000000000000000000000000000081526004016107279061126b565b60405180910390fd5b6000600260008481526020019081526020016000209050806001015442101561078e576040517f08c379a0000000000000000000000000000000000000000000000000000000008152600401610785906112d7565b60405180910390fd5b8060060160009054906101000a900460ff16156107e0576040517f08c379a00000000000000000000000000000000000000000000000000000000081526004016107d790611343565b60405180910390fd5b818160060160016101000a81548160ff02191690831515021790555060018160060160006101000a81548160ff021916908315150217905550505050565b6000806000600260008581526020019081526020016000209050806002015481600301549250925050915091565b60008054906101000a900473ffffffffffffffffffffffffffffffffffffffff1673ffffffffffffffffffffffffffffffffffffffff163373ffffffffffffffffffffffffffffffffffffffff16146108da576040517f08c379a00000000000000000000000000000000000000000000000000000000081526004016108d19061126b565b60405180910390fd5b600060026000600160008154809291906108f390611363565b9190505581526020019081526020016000209050838382600001918261091a9291906115e7565b50814261092791906110dd565b816001018190555050505050565b60008054906101000a900473ffffffffffffffffffffffffffffffffffffffff1681565b6000600260008381526020019081526020016000209050806001015442106109b6576040517f08c379a00000000000000000000000000000000000000000000000000000000081526004016109ad906111ff565b60405180910390fd5b348160020160008282546109ca91906110dd565b92505081905550348160040160003373ffffffffffffffffffffffffffffffffffffffff1673ffffffffffffffffffffffffffffffffffffffff1681526020019081526020016000206000828254610a2291906110dd565b925050819055505050565b6002602052806000526040600020600091509050806000018054610a5090611414565b80601f0160208091040260200160405190810160405280929190818152602001828054610a7c90611414565b8015610ac95780601f10610a9e57610100808354040283529160200191610ac9565b820191906000526020600020905b815481529060010190602001808311610aac57829003601f168201915b5050505050908060010154908060020154908060030154908060060160009054906101000a900460ff16908060060160019054906101000a900460ff16905086565b6000600360009054906101000a900473ffffffffffffffffffffffffffffffffffffffff1673ffffffffffffffffffffffffffffffffffffffff1663a908f02174014554482f5553440000000000000000000000000060581b6040518263ffffffff1660e01b8152600401610b8091906116f2565b602060405180830381865afa158015610b9d573d6000803e3d6000fd5b505050506040513d601f19601f82011682018060405250810190610bc19190611722565b905090565b600080610bd1610b0b565b9050826305f5e10082610be49190611111565b610bee9190611182565b915050919050565b60015481565b600073ffffffffffffffffffffffffffffffffffffffff82169050919050565b6000819050919050565b6000610c41610c3c610c3784610bfc565b610c1c565b610bfc565b9050919050565b6000610c5382610c26565b9050919050565b6000610c6582610c48565b9050919050565b610c7581610c5a565b82525050565b6000602082019050610c906000830184610c6c565b92915050565b600080fd5b600080fd5b6000819050919050565b610cb381610ca0565b8114610cbe57600080fd5b50565b600081359050610cd081610caa565b92915050565b600060208284031215610cec57610ceb610c96565b5b6000610cfa84828501610cc1565b91505092915050565b60008115159050919050565b610d1881610d03565b8114610d2357600080fd5b50565b600081359050610d3581610d0f565b92915050565b60008060408385031215610d5257610d51610c96565b5b6000610d6085828601610cc1565b9250506020610d7185828601610d26565b9150509250929050565b610d8481610ca0565b82525050565b6000604082019050610d9f6000830185610d7b565b610dac6020830184610d7b565b9392505050565b600080fd5b600080fd5b600080fd5b60008083601f840112610dd857610dd7610db3565b5b8235905067ffffffffffffffff811115610df557610df4610db8565b5b602083019150836001820283011115610e1157610e10610dbd565b5b9250929050565b600080600060408486031215610e3157610e30610c96565b5b600084013567ffffffffffffffff811115610e4f57610e4e610c9b565b5b610e5b86828701610dc2565b93509350506020610e6e86828701610cc1565b9150509250925092565b6000610e8382610bfc565b9050919050565b610e9381610e78565b82525050565b6000602082019050610eae6000830184610e8a565b92915050565b600081519050919050565b600082825260208201905092915050565b60005b83811015610eee578082015181840152602081019050610ed3565b60008484015250505050565b6000601f19601f8301169050919050565b6000610f1682610eb4565b610f208185610ebf565b9350610f30818560208601610ed0565b610f3981610efa565b840191505092915050565b610f4d81610d03565b82525050565b600060c0820190508181036000830152610f6d8189610f0b565b9050610f7c6020830188610d7b565b610f896040830187610d7b565b610f966060830186610d7b565b610fa36080830185610f44565b610fb060a0830184610f44565b979650505050505050565b6000602082019050610fd06000830184610d7b565b92915050565b7f4e6f74207265736f6c7665640000000000000000000000000000000000000000600082015250565b600061100c600c83610ebf565b915061101782610fd6565b602082019050919050565b6000602082019050818103600083015261103b81610fff565b9050919050565b7f4e6f2077696e6e696e6720626574000000000000000000000000000000000000600082015250565b6000611078600e83610ebf565b915061108382611042565b602082019050919050565b600060208201905081810360008301526110a78161106b565b9050919050565b7f4e487b7100000000000000000000000000000000000000000000000000000000600052601160045260246000fd5b60006110e882610ca0565b91506110f383610ca0565b925082820190508082111561110b5761110a6110ae565b5b92915050565b600061111c82610ca0565b915061112783610ca0565b925082820261113581610ca0565b9150828204841483151761114c5761114b6110ae565b5b5092915050565b7f4e487b7100000000000000000000000000000000000000000000000000000000600052601260045260246000fd5b600061118d82610ca0565b915061119883610ca0565b9250826111a8576111a7611153565b5b828204905092915050565b7f4d61726b657420636c6f73656400000000000000000000000000000000000000600082015250565b60006111e9600d83610ebf565b91506111f4826111b3565b602082019050919050565b60006020820190508181036000830152611218816111dc565b9050919050565b7f4e6f74206f776e65720000000000000000000000000000000000000000000000600082015250565b6000611255600983610ebf565b91506112608261121f565b602082019050919050565b6000602082019050818103600083015261128481611248565b9050919050565b7f4d61726b6574206e6f7420656e64656400000000000000000000000000000000600082015250565b60006112c1601083610ebf565b91506112cc8261128b565b602082019050919050565b600060208201905081810360008301526112f0816112b4565b9050919050565b7f416c7265616479207265736f6c76656400000000000000000000000000000000600082015250565b600061132d601083610ebf565b9150611338826112f7565b602082019050919050565b6000602082019050818103600083015261135c81611320565b9050919050565b600061136e82610ca0565b91507fffffffffffffffffffffffffffffffffffffffffffffffffffffffffffffffff82036113a05761139f6110ae565b5b600182019050919050565b600082905092915050565b7f4e487b7100000000000000000000000000000000000000000000000000000000600052604160045260246000fd5b7f4e487b7100000000000000000000000000000000000000000000000000000000600052602260045260246000fd5b6000600282049050600182168061142c57607f821691505b60208210810361143f5761143e6113e5565b5b50919050565b60008190508160005260206000209050919050565b60006020601f8301049050919050565b600082821b905092915050565b6000600883026114a77fffffffffffffffffffffffffffffffffffffffffffffffffffffffffffffffff8261146a565b6114b1868361146a565b95508019841693508086168417925050509392505050565b60006114e46114df6114da84610ca0565b610c1c565b610ca0565b9050919050565b6000819050919050565b6114fe836114c9565b61151261150a826114eb565b848454611477565b825550505050565b600090565b61152761151a565b6115328184846114f5565b505050565b5b818110156115565761154b60008261151f565b600181019050611538565b5050565b601f82111561159b5761156c81611445565b6115758461145a565b81016020851015611584578190505b6115986115908561145a565b830182611537565b50505b505050565b600082821c905092915050565b60006115be600019846008026115a0565b1980831691505092915050565b60006115d783836115ad565b9150826002028217905092915050565b6115f183836113ab565b67ffffffffffffffff81111561160a576116096113b6565b5b6116148254611414565b61161f82828561155a565b6000601f83116001811461164e576000841561163c578287013590505b61164685826115cb565b8655506116ae565b601f19841661165c86611445565b60005b828110156116845784890135825560018201915060208501945060208101905061165f565b868310156116a1578489013561169d601f8916826115ad565b8355505b6001600288020188555050505b50505050505050565b60007fffffffffffffffffffffffffffffffffffffffffff000000000000000000000082169050919050565b6116ec816116b7565b82525050565b600060208201905061170760008301846116e3565b92915050565b60008151905061171c81610caa565b92915050565b60006020828403121561173857611737610c96565b5b60006117468482850161170d565b9150509291505056fea2646970667358221220923e30b4756d63245878389561572b34e22365ec87a39a8d9379d90ce7188c0964736f6c634300081c0033",
  "linkReferences": {},
  "deployedLinkReferences": {}
}