{
  "_format": "hh-sol-artifact-1",
  "contractName": "PredictionMarket",
  "sourceName": "contracts/PredictionMarket.sol",
  "abi": [
    {
      "inputs": [
        {
          "internalType": "address",
          "name": "_priceFeed",
          "type": "address"
        }
      ],
      "stateMutability": "nonpayable",
      "type": "constructor"
    },
    {
      "anonymous": false,
      "inputs": [
        {
          "indexed": true,
          "internalType": "uint256",
          "name": "marketId",
          "type": "uint256"
        },
        {
          "indexed": false,
          "internalType": "string",
          "name": "question",
          "type": "string"
        },
        {
          "indexed": false,
          "internalType": "int256",
          "name": "targetPrice",
          "type": "int256"
        },
        {
          "indexed": false,
          "internalType": "uint256",
          "name": "endTime",
          "type": "uint256"
        }
      ],
      "name": "MarketCreated",
      "type": "event"
    },
    {
      "anonymous": false,
      "inputs": [
        {
          "indexed": true,
          "internalType": "uint256",
          "name": "marketId",
          "type": "uint256"
        },
        {
          "indexed": false,
          "internalType": "bool",
          "name": "outcome",
          "type": "bool"
        },
        {
          "indexed": false,
          "internalType": "int256",
          "name": "resolvedPrice",
          "type": "int256"
        }
      ],
      "name": "MarketResolved",
      "type": "event"
    },
    {
      "inputs": [
        {
          "internalType": "uint256",
          "name": "marketId",
          "type": "uint256"
        }
      ],
      "name": "betNo",
      "outputs": [],
      "stateMutability": "payable",
      "type": "function"
    },
    {
      "inputs": [
        {
          "internalType": "uint256",
          "name": "marketId",
          "type": "uint256"
        }
      ],
      "name": "betYes",
      "outputs": [],
      "stateMutability": "payable",
      "type": "function"
    },
    {
      "inputs": [
        {
          "internalType": "uint256",
          "name": "marketId",
          "type": "uint256"
        }
      ],
      "name": "claim",
      "outputs": [],
      "stateMutability": "nonpayable",
      "type": "function"
    },
    {
      "inputs": [
        {
          "internalType": "string",
          "name": "_question",
          "type": "string"
        },
        {
          "internalType": "int256",
          "name": "_targetPrice",
          "type": "int256"
        },
        {
          "internalType": "uint256",
          "name": "_durationInSeconds",
          "type": "uint256"
        }
      ],
      "name": "createMarket",
      "outputs": [],
      "stateMutability": "nonpayable",
      "type": "function"
    },
    {
      "inputs": [],
      "name": "getEthUsd",
      "outputs": [
        {
          "internalType": "int256",
          "name": "",
          "type": "int256"
        }
      ],
      "stateMutability": "view",
      "type": "function"
    },
    {
      "inputs": [
        {
          "internalType": "uint256",
          "name": "marketId",
          "type": "uint256"
        }
      ],
      "name": "getPools",
      "outputs": [
        {
          "internalType": "uint256",
          "name": "yes",
          "type": "uint256"
        },
        {
          "internalType": "uint256",
          "name": "no",
          "type": "uint256"
        }
      ],
      "stateMutability": "view",
      "type": "function"
    },
    {
      "inputs": [],
      "name": "marketCount",
      "outputs": [
        {
          "internalType": "uint256",
          "name": "",
          "type": "uint256"
        }
      ],
      "stateMutability": "view",
      "type": "function"
    },
    {
      "inputs": [
        {
          "internalType": "uint256",
          "name": "",
          "type": "uint256"
        }
      ],
      "name": "markets",
      "outputs": [
        {
          "internalType": "string",
          "name": "question",
          "type": "string"
        },
        {
          "internalType": "int256",
          "name": "targetPrice",
          "type": "int256"
        },
        {
          "internalType": "uint256",
          "name": "endTime",
          "type": "uint256"
        },
        {
          "internalType": "uint256",
          "name": "yesPool",
          "type": "uint256"
        },
        {
          "internalType": "uint256",
          "name": "noPool",
          "type": "uint256"
        },
        {
          "internalType": "bool",
          "name": "resolved",
          "type": "bool"
        },
        {
          "internalType": "bool",
          "name": "outcome",
          "type": "bool"
        }
      ],
      "stateMutability": "view",
      "type": "function"
    },
    {
      "inputs": [],
      "name": "owner",
      "outputs": [
        {
          "internalType": "address",
          "name": "",
          "type": "address"
        }
      ],
      "stateMutability": "view",
      "type": "function"
    },
    {
      "inputs": [],
      "name": "priceFeed",
      "outputs": [
        {
          "internalType": "contract AggregatorV3Interface",
          "name": "",
          "type": "address"
        }
      ],
      "stateMutability": "view",
      "type": "function"
    },
    {
      "inputs": [
        {
          "internalType": "uint256",
          "name": "marketId",
          "type": "uint256"
        }
      ],
      "name": "resolveMarket",
      "outputs": [],
      "stateMutability": "nonpayable",
      "type": "function"
    },
    {
      "stateMutability": "payable",
      "type": "receive"
    }
  ],
  "bytecode": "0x608060405234801561001057600080fd5b50604051611a47380380611a478339818101604052810190610032919061011c565b336000806101000a81548173ffffffffffffffffffffffffffffffffffffffff021916908373ffffffffffffffffffffffffffffffffffffffff16021790555080600360006101000a81548173ffffffffffffffffffffffffffffffffffffffff021916908373ffffffffffffffffffffffffffffffffffffffff16021790555050610149565b600080fd5b600073ffffffffffffffffffffffffffffffffffffffff82169050919050565b60006100e9826100be565b9050919050565b6100f9816100de565b811461010457600080fd5b50565b600081519050610116816100f0565b92915050565b600060208284031215610132576101316100b9565b5b600061014084828501610107565b91505092915050565b6118ef806101586000396000f3fe6080604052600436106100a05760003560e01c80638da5cb5b116100645780638da5cb5b1461018357806393467525146101ae578063b1283e77146101ca578063bb27e0ce1461020d578063ec97908214610238578063f68b490714610263576100a7565b8063379607f5146100ac578063415a4a25146100d557806362d26ed7146100f15780636399d03d1461012f578063741bef1a14610158576100a7565b366100a757005b600080fd5b3480156100b857600080fd5b506100d360048036038101906100ce9190610c68565b61028c565b005b6100ef60048036038101906100ea9190610c68565b610561565b005b3480156100fd57600080fd5b5061011860048036038101906101139190610c68565b610635565b604051610126929190610ca4565b60405180910390f35b34801561013b57600080fd5b5061015660048036038101906101519190610c68565b610663565b005b34801561016457600080fd5b5061016d61083d565b60405161017a9190610d4c565b60405180910390f35b34801561018f57600080fd5b50610198610863565b6040516101a59190610d88565b60405180910390f35b6101c860048036038101906101c39190610c68565b610887565b005b3480156101d657600080fd5b506101f160048036038101906101ec9190610c68565b61095b565b6040516102049796959493929190610e67565b60405180910390f35b34801561021957600080fd5b50610222610a3f565b60405161022f9190610edd565b60405180910390f35b34801561024457600080fd5b5061024d610ae0565b60405161025a9190610ef8565b60405180910390f35b34801561026f57600080fd5b5061028a60048036038101906102859190610fa4565b610ae6565b005b60006002600083815260200190815260200160002090508060070160009054906101000a900460ff166102f4576040517f08c379a00000000000000000000000000000000000000000000000000000000081526004016102eb90611064565b60405180910390fd5b60008160070160019054906101000a900460ff16156104135760008260050160003373ffffffffffffffffffffffffffffffffffffffff1673ffffffffffffffffffffffffffffffffffffffff16815260200190815260200160002054905060008111610396576040517f08c379a000000000000000000000000000000000000000000000000000000000815260040161038d906110d0565b60405180910390fd5b8260030154836004015484600301546103af919061111f565b826103ba9190611153565b6103c491906111c4565b915060008360050160003373ffffffffffffffffffffffffffffffffffffffff1673ffffffffffffffffffffffffffffffffffffffff1681526020019081526020016000208190555050610515565b60008260060160003373ffffffffffffffffffffffffffffffffffffffff1673ffffffffffffffffffffffffffffffffffffffff1681526020019081526020016000205490506000811161049c576040517f08c379a0000000000000000000000000000000000000000000000000000000008152600401610493906110d0565b60405180910390fd5b8260040154836004015484600301546104b5919061111f565b826104c09190611153565b6104ca91906111c4565b915060008360060160003373ffffffffffffffffffffffffffffffffffffffff1673ffffffffffffffffffffffffffffffffffffffff16815260200190815260200160002081905550505b3373ffffffffffffffffffffffffffffffffffffffff166108fc829081150290604051600060405180830381858888f1935050505015801561055b573d6000803e3d6000fd5b50505050565b6000600260008381526020019081526020016000209050806002015442106105be576040517f08c379a00000000000000000000000000000000000000000000000000000000081526004016105b590611241565b60405180910390fd5b348160040160008282546105d2919061111f565b92505081905550348160060160003373ffffffffffffffffffffffffffffffffffffffff1673ffffffffffffffffffffffffffffffffffffffff168152602001908152602001600020600082825461062a919061111f565b925050819055505050565b6000806000600260008581526020019081526020016000209050806003015481600401549250925050915091565b60008054906101000a900473ffffffffffffffffffffffffffffffffffffffff1673ffffffffffffffffffffffffffffffffffffffff163373ffffffffffffffffffffffffffffffffffffffff16146106f1576040517f08c379a00000000000000000000000000000000000000000000000000000000081526004016106e8906112ad565b60405180910390fd5b6000600260008381526020019081526020016000209050806002015442101561074f576040517f08c379a000000000000000000000000000000000000000000000000000000000815260040161074690611319565b60405180910390fd5b8060070160009054906101000a900460ff16156107a1576040517f08c379a000000000000000000000000000000000000000000000000000000000815260040161079890611385565b60405180910390fd5b60006107ab610a3f565b905081600101548112158260070160016101000a81548160ff02191690831515021790555060018260070160006101000a81548160ff021916908315150217905550827fac1fb42e90712a79b0ad6cf04a8cea7681a4d0ca30aa83e1ea5c9f165adb82c98360070160019054906101000a900460ff16836040516108309291906113a5565b60405180910390a2505050565b600360009054906101000a900473ffffffffffffffffffffffffffffffffffffffff1681565b60008054906101000a900473ffffffffffffffffffffffffffffffffffffffff1681565b6000600260008381526020019081526020016000209050806002015442106108e4576040517f08c379a00000000000000000000000000000000000000000000000000000000081526004016108db90611241565b60405180910390fd5b348160030160008282546108f8919061111f565b92505081905550348160050160003373ffffffffffffffffffffffffffffffffffffffff1673ffffffffffffffffffffffffffffffffffffffff1681526020019081526020016000206000828254610950919061111f565b925050819055505050565b600260205280600052604060002060009150905080600001805461097e906113fd565b80601f01602080910402602001604051908101604052809291908181526020018280546109aa906113fd565b80156109f75780601f106109cc576101008083540402835291602001916109f7565b820191906000526020600020905b8154815290600101906020018083116109da57829003601f168201915b5050505050908060010154908060020154908060030154908060040154908060070160009054906101000a900460ff16908060070160019054906101000a900460ff16905087565b600080600360009054906101000a900473ffffffffffffffffffffffffffffffffffffffff1673ffffffffffffffffffffffffffffffffffffffff1663feaf968c6040518163ffffffff1660e01b815260040160a060405180830381865afa158015610aaf573d6000803e3d6000fd5b505050506040513d601f19601f82011682018060405250810190610ad3919061149a565b5050509150508091505090565b60015481565b60008054906101000a900473ffffffffffffffffffffffffffffffffffffffff1673ffffffffffffffffffffffffffffffffffffffff163373ffffffffffffffffffffffffffffffffffffffff1614610b74576040517f08c379a0000000000000000000000000000000000000000000000000000000008152600401610b6b906112ad565b60405180910390fd5b60006002600060016000815480929190610b8d90611515565b91905055815260200190815260200160002090508484826000019182610bb4929190611739565b508281600101819055508142610bca919061111f565b816002018190555060018054610be09190611809565b7f74b23f4022ae2faf836b1908140e1612338af097303f2cceabc93c1801f51f828686868560020154604051610c199493929190611879565b60405180910390a25050505050565b600080fd5b600080fd5b6000819050919050565b610c4581610c32565b8114610c5057600080fd5b50565b600081359050610c6281610c3c565b92915050565b600060208284031215610c7e57610c7d610c28565b5b6000610c8c84828501610c53565b91505092915050565b610c9e81610c32565b82525050565b6000604082019050610cb96000830185610c95565b610cc66020830184610c95565b9392505050565b600073ffffffffffffffffffffffffffffffffffffffff82169050919050565b6000819050919050565b6000610d12610d0d610d0884610ccd565b610ced565b610ccd565b9050919050565b6000610d2482610cf7565b9050919050565b6000610d3682610d19565b9050919050565b610d4681610d2b565b82525050565b6000602082019050610d616000830184610d3d565b92915050565b6000610d7282610ccd565b9050919050565b610d8281610d67565b82525050565b6000602082019050610d9d6000830184610d79565b92915050565b600081519050919050565b600082825260208201905092915050565b60005b83811015610ddd578082015181840152602081019050610dc2565b60008484015250505050565b6000601f19601f8301169050919050565b6000610e0582610da3565b610e0f8185610dae565b9350610e1f818560208601610dbf565b610e2881610de9565b840191505092915050565b6000819050919050565b610e4681610e33565b82525050565b60008115159050919050565b610e6181610e4c565b82525050565b600060e0820190508181036000830152610e81818a610dfa565b9050610e906020830189610e3d565b610e9d6040830188610c95565b610eaa6060830187610c95565b610eb76080830186610c95565b610ec460a0830185610e58565b610ed160c0830184610e58565b98975050505050505050565b6000602082019050610ef26000830184610e3d565b92915050565b6000602082019050610f0d6000830184610c95565b92915050565b600080fd5b600080fd5b600080fd5b60008083601f840112610f3857610f37610f13565b5b8235905067ffffffffffffffff811115610f5557610f54610f18565b5b602083019150836001820283011115610f7157610f70610f1d565b5b9250929050565b610f8181610e33565b8114610f8c57600080fd5b50565b600081359050610f9e81610f78565b92915050565b60008060008060608587031215610fbe57610fbd610c28565b5b600085013567ffffffffffffffff811115610fdc57610fdb610c2d565b5b610fe887828801610f22565b94509450506020610ffb87828801610f8f565b925050604061100c87828801610c53565b91505092959194509250565b7f4e6f74207265736f6c7665640000000000000000000000000000000000000000600082015250565b600061104e600c83610dae565b915061105982611018565b602082019050919050565b6000602082019050818103600083015261107d81611041565b9050919050565b7f4e6f2077696e6e696e6720626574000000000000000000000000000000000000600082015250565b60006110ba600e83610dae565b91506110c582611084565b602082019050919050565b600060208201905081810360008301526110e9816110ad565b9050919050565b7f4e487b7100000000000000000000000000000000000000000000000000000000600052601160045260246000fd5b600061112a82610c32565b915061113583610c32565b925082820190508082111561114d5761114c6110f0565b5b92915050565b600061115e82610c32565b915061116983610c32565b925082820261117781610c32565b9150828204841483151761118e5761118d6110f0565b5b5092915050565b7f4e487b7100000000000000000000000000000000000000000000000000000000600052601260045260246000fd5b60006111cf82610c32565b91506111da83610c32565b9250826111ea576111e9611195565b5b828204905092915050565b7f4d61726b657420636c6f73656400000000000000000000000000000000000000600082015250565b600061122b600d83610dae565b9150611236826111f5565b602082019050919050565b6000602082019050818103600083015261125a8161121e565b9050919050565b7f4e6f74206f776e65720000000000000000000000000000000000000000000000600082015250565b6000611297600983610dae565b91506112a282611261565b602082019050919050565b600060208201905081810360008301526112c68161128a565b9050919050565b7f4d61726b6574206e6f7420656e64656400000000000000000000000000000000600082015250565b6000611303601083610dae565b915061130e826112cd565b602082019050919050565b60006020820190508181036000830152611332816112f6565b9050919050565b7f416c7265616479207265736f6c76656400000000000000000000000000000000600082015250565b600061136f601083610dae565b915061137a82611339565b602082019050919050565b6000602082019050818103600083015261139e81611362565b9050919050565b60006040820190506113ba6000830185610e58565b6113c76020830184610e3d565b9392505050565b7f4e487b7100000000000000000000000000000000000000000000000000000000600052602260045260246000fd5b6000600282049050600182168061141557607f821691505b602082108103611428576114276113ce565b5b50919050565b600069ffffffffffffffffffff82169050919050565b61144d8161142e565b811461145857600080fd5b50565b60008151905061146a81611444565b92915050565b60008151905061147f81610f78565b92915050565b60008151905061149481610c3c565b92915050565b600080600080600060a086880312156114b6576114b5610c28565b5b60006114c48882890161145b565b95505060206114d588828901611470565b94505060406114e688828901611485565b93505060606114f788828901611485565b92505060806115088882890161145b565b9150509295509295909350565b600061152082610c32565b91507fffffffffffffffffffffffffffffffffffffffffffffffffffffffffffffffff8203611552576115516110f0565b5b600182019050919050565b600082905092915050565b7f4e487b7100000000000000000000000000000000000000000000000000000000600052604160045260246000fd5b60008190508160005260206000209050919050565b60006020601f8301049050919050565b600082821b905092915050565b6000600883026115f97fffffffffffffffffffffffffffffffffffffffffffffffffffffffffffffffff826115bc565b61160386836115bc565b95508019841693508086168417925050509392505050565b600061163661163161162c84610c32565b610ced565b610c32565b9050919050565b6000819050919050565b6116508361161b565b61166461165c8261163d565b8484546115c9565b825550505050565b600090565b61167961166c565b611684818484611647565b505050565b5b818110156116a85761169d600082611671565b60018101905061168a565b5050565b601f8211156116ed576116be81611597565b6116c7846115ac565b810160208510156116d6578190505b6116ea6116e2856115ac565b830182611689565b50505b505050565b600082821c905092915050565b6000611710600019846008026116f2565b1980831691505092915050565b600061172983836116ff565b9150826002028217905092915050565b611743838361155d565b67ffffffffffffffff81111561175c5761175b611568565b5b61176682546113fd565b6117718282856116ac565b6000601f8311600181146117a0576000841561178e578287013590505b611798858261171d565b865550611800565b601f1984166117ae86611597565b60005b828110156117d6578489013582556001820191506020850194506020810190506117b1565b868310156117f357848901356117ef601f8916826116ff565b8355505b6001600288020188555050505b50505050505050565b600061181482610c32565b915061181f83610c32565b9250828203905081811115611837576118366110f0565b5b92915050565b82818337600083830152505050565b60006118588385610dae565b935061186583858461183d565b61186e83610de9565b840190509392505050565b6000606082019050818103600083015261189481868861184c565b90506118a36020830185610e3d565b6118b06040830184610c95565b9594505050505056fea2646970667358221220c7080005194305440a03391cff14d543a6621c690bb064f9c7d652338f91ab7164736f6c634300081c0033",
  "linkReferences": {},
  "deployedLinkReferences": {}
}